{"abi":[{"type":"constructor","inputs":[{"name":"_router","type":"address","internalType":"address"},{"name":"_poolManager","type":"address","internalType":"address"},{"name":"_permit2","type":"address","internalType":"address"}],"stateMutability":"nonpayable"},{"type":"receive","stateMutability":"payable"},{"type":"function","name":"PERMIT2","inputs":[],"outputs":[{"name":"","type":"address","internalType":"contract IPermit2"}],"stateMutability":"view"},{"type":"function","name":"POOL_MANAGER","inputs":[],"outputs":[{"name":"","type":"address","internalType":"contract IPoolManager"}],"stateMutability":"view"},{"type":"function","name":"ROUTER","inputs":[],"outputs":[{"name":"","type":"address","internalType":"contract IUniversalRouter"}],"stateMutability":"view"},{"type":"function","name":"approveTokenWithPermit2","inputs":[{"name":"token","type":"address","internalType":"address"},{"name":"amount","type":"uint160","internalType":"uint160"},{"name":"expiration","type":"uint48","internalType":"uint48"}],"outputs":[],"stateMutability":"nonpayable"},{"type":"function","name":"swapExactInput","inputs":[{"name":"currencyIn","type":"address","internalType":"Currency"},{"name":"path","type":"tuple[]","internalType":"struct PathKey[]","components":[{"name":"intermediateCurrency","type":"address","internalType":"Currency"},{"name":"fee","type":"uint24","internalType":"uint24"},{"name":"tickSpacing","type":"int24","internalType":"int24"},{"name":"hooks","type":"address","internalType":"contract IHooks"},{"name":"hookData","type":"bytes","internalType":"bytes"}]},{"name":"amountIn","type":"uint128","internalType":"uint128"},{"name":"minAmountOut","type":"uint128","internalType":"uint128"}],"outputs":[{"name":"amountOut","type":"uint256","internalType":"uint256"}],"stateMutability":"payable"},{"type":"function","name":"swapExactInputSingle","inputs":[{"name":"key","type":"tuple","internalType":"struct PoolKey","components":[{"name":"currency0","type":"address","internalType":"Currency"},{"name":"currency1","type":"address","internalType":"Currency"},{"name":"fee","type":"uint24","internalType":"uint24"},{"name":"tickSpacing","type":"int24","internalType":"int24"},{"name":"hooks","type":"address","internalType":"contract IHooks"}]},{"name":"zeroForOne","type":"bool","internalType":"bool"},{"name":"amountIn","type":"uint128","internalType":"uint128"},{"name":"minAmountOut","type":"uint128","internalType":"uint128"}],"outputs":[{"name":"amountOut","type":"uint256","internalType":"uint256"}],"stateMutability":"payable"}],"bytecode":{"object":"0x60e060405234801561000f575f80fd5b5060405161284b38038061284b83398181016040528101906100319190610133565b8273ffffffffffffffffffffffffffffffffffffffff1660808173ffffffffffffffffffffffffffffffffffffffff16815250508173ffffffffffffffffffffffffffffffffffffffff1660a08173ffffffffffffffffffffffffffffffffffffffff16815250508073ffffffffffffffffffffffffffffffffffffffff1660c08173ffffffffffffffffffffffffffffffffffffffff1681525050505050610183565b5f80fd5b5f73ffffffffffffffffffffffffffffffffffffffff82169050919050565b5f610102826100d9565b9050919050565b610112816100f8565b811461011c575f80fd5b50565b5f8151905061012d81610109565b92915050565b5f805f6060848603121561014a576101496100d5565b5b5f6101578682870161011f565b93505060206101688682870161011f565b92505060406101798682870161011f565b9150509250925092565b60805160a05160c05161266d6101de5f395f818161018701528181610227015261032001525f6102fc01525f8181610264015281816102d8015281816106ab0152818161079001528181610e290152610f0e015261266d5ff3fe608060405260043610610058575f3560e01c8063267b14bd1461006357806332fe7b261461008b57806362308e85146100b55780636afdd850146100df578063eca3adf514610109578063f67b9564146101395761005f565b3661005f57005b5f80fd5b34801561006e575f80fd5b50610089600480360381019061008491906112f3565b610169565b005b348015610096575f80fd5b5061009f6102d6565b6040516100ac919061139e565b60405180910390f35b3480156100c0575f80fd5b506100c96102fa565b6040516100d691906113d7565b60405180910390f35b3480156100ea575f80fd5b506100f361031e565b6040516101009190611410565b60405180910390f35b610123600480360381019061011e91906114c5565b610342565b6040516101309190611542565b60405180910390f35b610153600480360381019061014e91906115e6565b610a99565b6040516101609190611542565b60405180910390f35b8273ffffffffffffffffffffffffffffffffffffffff1663095ea7b37f00000000000000000000000000000000000000000000000000000000000000007fffffffffffffffffffffffffffffffffffffffffffffffffffffffffffffffff6040518363ffffffff1660e01b81526004016101e4929190611679565b6020604051808303815f875af1158015610200573d5f803e3d5ffd5b505050506040513d601f19601f8201168201806040525081019061022491906116b4565b507f000000000000000000000000000000000000000000000000000000000000000073ffffffffffffffffffffffffffffffffffffffff166387517c45847f000000000000000000000000000000000000000000000000000000000000000085856040518563ffffffff1660e01b81526004016102a494939291906116fd565b5f604051808303815f87803b1580156102bb575f80fd5b505af11580156102cd573d5f803e3d5ffd5b50505050505050565b7f000000000000000000000000000000000000000000000000000000000000000081565b7f000000000000000000000000000000000000000000000000000000000000000081565b7f000000000000000000000000000000000000000000000000000000000000000081565b5f8060106040516020016103569190611780565b60405160208183030381529060405290505f600167ffffffffffffffff8111156103835761038261179a565b5b6040519080825280602002602001820160405280156103b657816020015b60608152602001906001900390816103a15790505b5090505f6006600c600f6040516020016103d2939291906117c7565b60405160208183030381529060405290505f87610401578860200160208101906103fc9190611803565b610414565b885f0160208101906104139190611803565b5b90505f8861043357895f01602081019061042e9190611803565b610447565b8960200160208101906104469190611803565b5b90505f8290505f8290505f8073ffffffffffffffffffffffffffffffffffffffff168373ffffffffffffffffffffffffffffffffffffffff161490505f600367ffffffffffffffff81111561049f5761049e61179a565b5b6040519080825280602002602001820160405280156104d257816020015b60608152602001906001900390816104bd5790505b5090506040518060a001604052808f8036038101906104f191906119c3565b81526020018e151581526020018d6fffffffffffffffffffffffffffffffff1681526020018c6fffffffffffffffffffffffffffffffff16815260200160405180602001604052805f8152508152506040516020016105509190611ba5565b604051602081830303815290604052815f8151811061057257610571611bc5565b5b6020026020010181905250858c604051602001610590929190611c10565b604051602081830303815290604052816001815181106105b3576105b2611bc5565b5b6020026020010181905250848b6040516020016105d1929190611c10565b604051602081830303815290604052816002815181106105f4576105f3611bc5565b5b60200260200101819052508681604051602001610612929190611d3a565b604051602081830303815290604052885f8151811061063457610633611bc5565b5b60200260200101819052505f60144261064d9190611d9c565b9050821561074c578c6fffffffffffffffffffffffffffffffff1634146106a9576040517f08c379a00000000000000000000000000000000000000000000000000000000081526004016106a090611e29565b60405180910390fd5b7f000000000000000000000000000000000000000000000000000000000000000073ffffffffffffffffffffffffffffffffffffffff16633593564c8e6fffffffffffffffffffffffffffffffff168c8c856040518563ffffffff1660e01b815260040161071993929190611e47565b5f604051808303818588803b158015610730575f80fd5b505af1158015610742573d5f803e3d5ffd5b5050505050610819565b5f341461078e576040517f08c379a000000000000000000000000000000000000000000000000000000000815260040161078590611ed4565b60405180910390fd5b7f000000000000000000000000000000000000000000000000000000000000000073ffffffffffffffffffffffffffffffffffffffff16633593564c8b8b846040518463ffffffff1660e01b81526004016107eb93929190611e47565b5f604051808303815f87803b158015610802575f80fd5b505af1158015610814573d5f803e3d5ffd5b505050505b5f73ffffffffffffffffffffffffffffffffffffffff168473ffffffffffffffffffffffffffffffffffffffff16036108fd57479a505f3373ffffffffffffffffffffffffffffffffffffffff168c60405161087490611f1f565b5f6040518083038185875af1925050503d805f81146108ae576040519150601f19603f3d011682016040523d82523d5f602084013e6108b3565b606091505b50509050806108f7576040517f08c379a00000000000000000000000000000000000000000000000000000000081526004016108ee90611f7d565b60405180910390fd5b50610a32565b8373ffffffffffffffffffffffffffffffffffffffff166370a08231306040518263ffffffff1660e01b81526004016109369190611f9b565b602060405180830381865afa158015610951573d5f803e3d5ffd5b505050506040513d601f19601f820116820180604052508101906109759190611fde565b9a508373ffffffffffffffffffffffffffffffffffffffff1663a9059cbb338d6040518363ffffffff1660e01b81526004016109b2929190611679565b6020604051808303815f875af11580156109ce573d5f803e3d5ffd5b505050506040513d601f19601f820116820180604052508101906109f291906116b4565b610a31576040517f08c379a0000000000000000000000000000000000000000000000000000000008152600401610a2890612053565b60405180910390fd5b5b8b6fffffffffffffffffffffffffffffffff168b1015610a87576040517f08c379a0000000000000000000000000000000000000000000000000000000008152600401610a7e906120bb565b60405180910390fd5b50505050505050505050949350505050565b5f808585905011610adf576040517f08c379a0000000000000000000000000000000000000000000000000000000008152600401610ad690612123565b60405180910390fd5b5f6010604051602001610af29190611780565b60405160208183030381529060405290505f600167ffffffffffffffff811115610b1f57610b1e61179a565b5b604051908082528060200260200182016040528015610b5257816020015b6060815260200190600190039081610b3d5790505b5090505f6007600c600f604051602001610b6e939291906117c7565b60405160208183030381529060405290505f888860018b8b9050610b929190612141565b818110610ba257610ba1611bc5565b5b9050602002810190610bb49190612178565b5f016020810190610bc59190611803565b90505f8a90505f8290505f8073ffffffffffffffffffffffffffffffffffffffff168373ffffffffffffffffffffffffffffffffffffffff161490505f600367ffffffffffffffff811115610c1d57610c1c61179a565b5b604051908082528060200260200182016040528015610c5057816020015b6060815260200190600190039081610c3b5790505b50905060405180608001604052808f73ffffffffffffffffffffffffffffffffffffffff1681526020018e8e90610c8791906123a5565b81526020018c6fffffffffffffffffffffffffffffffff1681526020018b6fffffffffffffffffffffffffffffffff16815250604051602001610cca9190612547565b604051602081830303815290604052815f81518110610cec57610ceb611bc5565b5b60200260200101819052508d8b604051602001610d0a929190611c10565b60405160208183030381529060405281600181518110610d2d57610d2c611bc5565b5b6020026020010181905250848a604051602001610d4b929190611c10565b60405160208183030381529060405281600281518110610d6e57610d6d611bc5565b5b60200260200101819052508581604051602001610d8c929190611d3a565b604051602081830303815290604052875f81518110610dae57610dad611bc5565b5b60200260200101819052505f601442610dc79190611d9c565b90505f4790508315610eca578c6fffffffffffffffffffffffffffffffff163414610e27576040517f08c379a0000000000000000000000000000000000000000000000000000000008152600401610e1e906125b1565b60405180910390fd5b7f000000000000000000000000000000000000000000000000000000000000000073ffffffffffffffffffffffffffffffffffffffff16633593564c8e6fffffffffffffffffffffffffffffffff168c8c866040518563ffffffff1660e01b8152600401610e9793929190611e47565b5f604051808303818588803b158015610eae575f80fd5b505af1158015610ec0573d5f803e3d5ffd5b5050505050610f97565b5f3414610f0c576040517f08c379a0000000000000000000000000000000000000000000000000000000008152600401610f0390612619565b60405180910390fd5b7f000000000000000000000000000000000000000000000000000000000000000073ffffffffffffffffffffffffffffffffffffffff16633593564c8b8b856040518463ffffffff1660e01b8152600401610f6993929190611e47565b5f604051808303815f87803b158015610f80575f80fd5b505af1158015610f92573d5f803e3d5ffd5b505050505b5f73ffffffffffffffffffffffffffffffffffffffff168573ffffffffffffffffffffffffffffffffffffffff1603611086578047610fd69190612141565b9a505f3373ffffffffffffffffffffffffffffffffffffffff168c604051610ffd90611f1f565b5f6040518083038185875af1925050503d805f8114611037576040519150601f19603f3d011682016040523d82523d5f602084013e61103c565b606091505b5050905080611080576040517f08c379a000000000000000000000000000000000000000000000000000000000815260040161107790611f7d565b60405180910390fd5b506111bb565b8473ffffffffffffffffffffffffffffffffffffffff166370a08231306040518263ffffffff1660e01b81526004016110bf9190611f9b565b602060405180830381865afa1580156110da573d5f803e3d5ffd5b505050506040513d601f19601f820116820180604052508101906110fe9190611fde565b9a508473ffffffffffffffffffffffffffffffffffffffff1663a9059cbb338d6040518363ffffffff1660e01b815260040161113b929190611679565b6020604051808303815f875af1158015611157573d5f803e3d5ffd5b505050506040513d601f19601f8201168201806040525081019061117b91906116b4565b6111ba576040517f08c379a00000000000000000000000000000000000000000000000000000000081526004016111b190612053565b60405180910390fd5b5b8b6fffffffffffffffffffffffffffffffff168b1015611210576040517f08c379a0000000000000000000000000000000000000000000000000000000008152600401611207906120bb565b60405180910390fd5b5050505050505050505095945050505050565b5f604051905090565b5f80fd5b5f80fd5b5f73ffffffffffffffffffffffffffffffffffffffff82169050919050565b5f61125d82611234565b9050919050565b61126d81611253565b8114611277575f80fd5b50565b5f8135905061128881611264565b92915050565b61129781611234565b81146112a1575f80fd5b50565b5f813590506112b28161128e565b92915050565b5f65ffffffffffff82169050919050565b6112d2816112b8565b81146112dc575f80fd5b50565b5f813590506112ed816112c9565b92915050565b5f805f6060848603121561130a5761130961122c565b5b5f6113178682870161127a565b9350506020611328868287016112a4565b9250506040611339868287016112df565b9150509250925092565b5f819050919050565b5f61136661136161135c84611234565b611343565b611234565b9050919050565b5f6113778261134c565b9050919050565b5f6113888261136d565b9050919050565b6113988161137e565b82525050565b5f6020820190506113b15f83018461138f565b92915050565b5f6113c18261136d565b9050919050565b6113d1816113b7565b82525050565b5f6020820190506113ea5f8301846113c8565b92915050565b5f6113fa8261136d565b9050919050565b61140a816113f0565b82525050565b5f6020820190506114235f830184611401565b92915050565b5f80fd5b5f60a0828403121561144257611441611429565b5b81905092915050565b5f8115159050919050565b61145f8161144b565b8114611469575f80fd5b50565b5f8135905061147a81611456565b92915050565b5f6fffffffffffffffffffffffffffffffff82169050919050565b6114a481611480565b81146114ae575f80fd5b50565b5f813590506114bf8161149b565b92915050565b5f805f8061010085870312156114de576114dd61122c565b5b5f6114eb8782880161142d565b94505060a06114fc8782880161146c565b93505060c061150d878288016114b1565b92505060e061151e878288016114b1565b91505092959194509250565b5f819050919050565b61153c8161152a565b82525050565b5f6020820190506115555f830184611533565b92915050565b61156481611253565b811461156e575f80fd5b50565b5f8135905061157f8161155b565b92915050565b5f80fd5b5f80fd5b5f80fd5b5f8083601f8401126115a6576115a5611585565b5b8235905067ffffffffffffffff8111156115c3576115c2611589565b5b6020830191508360208202830111156115df576115de61158d565b5b9250929050565b5f805f805f608086880312156115ff576115fe61122c565b5b5f61160c88828901611571565b955050602086013567ffffffffffffffff81111561162d5761162c611230565b5b61163988828901611591565b9450945050604061164c888289016114b1565b925050606061165d888289016114b1565b9150509295509295909350565b61167381611253565b82525050565b5f60408201905061168c5f83018561166a565b6116996020830184611533565b9392505050565b5f815190506116ae81611456565b92915050565b5f602082840312156116c9576116c861122c565b5b5f6116d6848285016116a0565b91505092915050565b6116e881611234565b82525050565b6116f7816112b8565b82525050565b5f6080820190506117105f83018761166a565b61171d602083018661166a565b61172a60408301856116df565b61173760608301846116ee565b95945050505050565b5f60ff82169050919050565b5f8160f81b9050919050565b5f6117628261174c565b9050919050565b61177a61177582611740565b611758565b82525050565b5f61178b8284611769565b60018201915081905092915050565b7f4e487b71000000000000000000000000000000000000000000000000000000005f52604160045260245ffd5b5f6117d28286611769565b6001820191506117e28285611769565b6001820191506117f28284611769565b600182019150819050949350505050565b5f602082840312156118185761181761122c565b5b5f61182584828501611571565b91505092915050565b5f80fd5b5f601f19601f8301169050919050565b61184b82611832565b810181811067ffffffffffffffff8211171561186a5761186961179a565b5b80604052505050565b5f61187c611223565b90506118888282611842565b919050565b5f80fd5b5f62ffffff82169050919050565b6118a881611891565b81146118b2575f80fd5b50565b5f813590506118c38161189f565b92915050565b5f8160020b9050919050565b6118de816118c9565b81146118e8575f80fd5b50565b5f813590506118f9816118d5565b92915050565b5f61190982611253565b9050919050565b611919816118ff565b8114611923575f80fd5b50565b5f8135905061193481611910565b92915050565b5f60a0828403121561194f5761194e61182e565b5b61195960a0611873565b90505f61196884828501611571565b5f83015250602061197b84828501611571565b602083015250604061198f848285016118b5565b60408301525060606119a3848285016118eb565b60608301525060806119b784828501611926565b60808301525092915050565b5f60a082840312156119d8576119d761122c565b5b5f6119e58482850161193a565b91505092915050565b5f6119f88261136d565b9050919050565b611a08816119ee565b82525050565b611a1781611891565b82525050565b611a26816118c9565b82525050565b5f611a368261136d565b9050919050565b611a4681611a2c565b82525050565b60a082015f820151611a605f8501826119ff565b506020820151611a7360208501826119ff565b506040820151611a866040850182611a0e565b506060820151611a996060850182611a1d565b506080820151611aac6080850182611a3d565b50505050565b611abb8161144b565b82525050565b611aca81611480565b82525050565b5f81519050919050565b5f82825260208201905092915050565b8281835e5f83830152505050565b5f611b0282611ad0565b611b0c8185611ada565b9350611b1c818560208601611aea565b611b2581611832565b840191505092915050565b5f61012083015f830151611b465f860182611a4c565b506020830151611b5960a0860182611ab2565b506040830151611b6c60c0860182611ac1565b506060830151611b7f60e0860182611ac1565b506080830151848203610100860152611b988282611af8565b9150508091505092915050565b5f6020820190508181035f830152611bbd8184611b30565b905092915050565b7f4e487b71000000000000000000000000000000000000000000000000000000005f52603260045260245ffd5b611bfb816119ee565b82525050565b611c0a81611480565b82525050565b5f604082019050611c235f830185611bf2565b611c306020830184611c01565b9392505050565b5f82825260208201905092915050565b5f611c5182611ad0565b611c5b8185611c37565b9350611c6b818560208601611aea565b611c7481611832565b840191505092915050565b5f81519050919050565b5f82825260208201905092915050565b5f819050602082019050919050565b5f611cb38383611af8565b905092915050565b5f602082019050919050565b5f611cd182611c7f565b611cdb8185611c89565b935083602082028501611ced85611c99565b805f5b85811015611d285784840389528151611d098582611ca8565b9450611d1483611cbb565b925060208a01995050600181019050611cf0565b50829750879550505050505092915050565b5f6040820190508181035f830152611d528185611c47565b90508181036020830152611d668184611cc7565b90509392505050565b7f4e487b71000000000000000000000000000000000000000000000000000000005f52601160045260245ffd5b5f611da68261152a565b9150611db18361152a565b9250828201905080821115611dc957611dc8611d6f565b5b92915050565b5f82825260208201905092915050565b7f496e636f72726563742045544820616d6f756e740000000000000000000000005f82015250565b5f611e13601483611dcf565b9150611e1e82611ddf565b602082019050919050565b5f6020820190508181035f830152611e4081611e07565b9050919050565b5f6060820190508181035f830152611e5f8186611c47565b90508181036020830152611e738185611cc7565b9050611e826040830184611533565b949350505050565b7f455448206e6f74206e656564656420666f7220746869732073776170000000005f82015250565b5f611ebe601c83611dcf565b9150611ec982611e8a565b602082019050919050565b5f6020820190508181035f830152611eeb81611eb2565b9050919050565b5f81905092915050565b50565b5f611f0a5f83611ef2565b9150611f1582611efc565b5f82019050919050565b5f611f2982611eff565b9150819050919050565b7f455448207472616e73666572206661696c6564000000000000000000000000005f82015250565b5f611f67601383611dcf565b9150611f7282611f33565b602082019050919050565b5f6020820190508181035f830152611f9481611f5b565b9050919050565b5f602082019050611fae5f83018461166a565b92915050565b611fbd8161152a565b8114611fc7575f80fd5b50565b5f81519050611fd881611fb4565b92915050565b5f60208284031215611ff357611ff261122c565b5b5f61200084828501611fca565b91505092915050565b7f546f6b656e207472616e73666572206661696c656400000000000000000000005f82015250565b5f61203d601583611dcf565b915061204882612009565b602082019050919050565b5f6020820190508181035f83015261206a81612031565b9050919050565b7f496e73756666696369656e74206f757470757420616d6f756e740000000000005f82015250565b5f6120a5601a83611dcf565b91506120b082612071565b602082019050919050565b5f6020820190508181035f8301526120d281612099565b9050919050565b7f506174682063616e6e6f7420626520656d7074790000000000000000000000005f82015250565b5f61210d601483611dcf565b9150612118826120d9565b602082019050919050565b5f6020820190508181035f83015261213a81612101565b9050919050565b5f61214b8261152a565b91506121568361152a565b925082820390508181111561216e5761216d611d6f565b5b92915050565b5f80fd5b5f8235600160a00383360303811261219357612192612174565b5b80830191505092915050565b5f67ffffffffffffffff8211156121b9576121b861179a565b5b602082029050602081019050919050565b5f80fd5b5f67ffffffffffffffff8211156121e8576121e761179a565b5b6121f182611832565b9050602081019050919050565b828183375f83830152505050565b5f61221e612219846121ce565b611873565b90508281526020810184848401111561223a576122396121ca565b5b6122458482856121fe565b509392505050565b5f82601f83011261226157612260611585565b5b813561227184826020860161220c565b91505092915050565b5f60a0828403121561228f5761228e61182e565b5b61229960a0611873565b90505f6122a884828501611571565b5f8301525060206122bb848285016118b5565b60208301525060406122cf848285016118eb565b60408301525060606122e384828501611926565b606083015250608082013567ffffffffffffffff8111156123075761230661188d565b5b6123138482850161224d565b60808301525092915050565b5f61233161232c8461219f565b611873565b905080838252602082019050602084028301858111156123545761235361158d565b5b835b8181101561239b57803567ffffffffffffffff81111561237957612378611585565b5b808601612386898261227a565b85526020850194505050602081019050612356565b5050509392505050565b5f6123b136848461231f565b905092915050565b5f81519050919050565b5f82825260208201905092915050565b5f819050602082019050919050565b5f60a083015f8301516123f75f8601826119ff565b50602083015161240a6020860182611a0e565b50604083015161241d6040860182611a1d565b5060608301516124306060860182611a3d565b50608083015184820360808601526124488282611af8565b9150508091505092915050565b5f61246083836123e2565b905092915050565b5f602082019050919050565b5f61247e826123b9565b61248881856123c3565b93508360208202850161249a856123d3565b805f5b858110156124d557848403895281516124b68582612455565b94506124c183612468565b925060208a0199505060018101905061249d565b50829750879550505050505092915050565b5f608083015f8301516124fc5f8601826119ff565b50602083015184820360208601526125148282612474565b91505060408301516125296040860182611ac1565b50606083015161253c6060860182611ac1565b508091505092915050565b5f6020820190508181035f83015261255f81846124e7565b905092915050565b7f496e636f72726563742045544820616d6f756e742070726f76696465640000005f82015250565b5f61259b601d83611dcf565b91506125a682612567565b602082019050919050565b5f6020820190508181035f8301526125c88161258f565b9050919050565b7f455448206e6f7420726571756972656420666f722074686973207377617000005f82015250565b5f612603601e83611dcf565b915061260e826125cf565b602082019050919050565b5f6020820190508181035f830152612630816125f7565b905091905056fea26469706673582212205a542b2c88d47b0859ef251490c25863b58eba6d95673334052256dafbae004764736f6c634300081a0033","linkReferences":{}},"methodIdentifiers":{"PERMIT2()":"6afdd850","POOL_MANAGER()":"62308e85","ROUTER()":"32fe7b26","approveTokenWithPermit2(address,uint160,uint48)":"267b14bd","swapExactInput(address,(address,uint24,int24,address,bytes)[],uint128,uint128)":"f67b9564","swapExactInputSingle((address,address,uint24,int24,address),bool,uint128,uint128)":"eca3adf5"},"id":50}